:100F76000A128A11DE2F08130812881388128814A1
:100F860008118811EB2F0817081688138812881085
:100F960008118811EB2F0813081688138812881079
:100FA60008158811EB2F0817081288138812881065
:100FB60008118815EB2F03138316071487140715DA
:100FC60088100811881108128812081388138312D2
:100FD600071CEE2FF12F071DF42FF72F071DFA2FF1
:100FE600FD2F871CBE27CE27871CC627CE27871C2A
:0A0FF600D627EB27871CD627BE275D
:02400E00B13FC0
:00000001FF
